:100000000C94B7000C94DF000C94DF000C94910961
:100010000C94DF000C94DF000C94DF000C94DF00E4
:100020000C94DF000C943B140C94DF000C94DF0064
:100030000C94DF000C94DF000C94DF000C94DF00C4
:100040000C948B170C94DF000C94771A0C94A91A5B
:100050000C94DF000C94DF000C94DF000C94DF00A4
:100060000C9465160C94DF00170BF60BF60BF60BD1
:100070001E0A1E0A1E0AB90AF60BF60BF60BF60B41
:10008000180A1E0A1E0A610D820D9A0DA60DB80DE2
:100090008E0D1B0E1B0E1B0E790D640DE20D700DE7
:1000A000760D730D1B0E7C0D1B0E090ED00D1B0E55
:1000B0007F0D08000000BE922449123EABAAAA2A76
:1000C000BECDCCCC4C3E00000080BEABAAAAAA3E5E
:1000D00000000000BF000000803F0000000000089A
:1000E0004178D3BB4387D1133D190E3CC3BD428237
:1000F000AD2B3E68EC8276BED98FE1A93E4C80EFF5
:10010000FFBE01C4FF7F3F000000000000000008A8
:1001100000020100000304070000000000000000CE
:10012000010204081020408001020408102001028E
:10013000040810200404040404040404020202025B
:100140000202030303030303000000002300260050
:10015000290000000000250028002B0000000000FE
:10016000240027002A001E0C2915D91AB30C1124CB
:100170001FBECFEFD8E0DEBFCDBF12E0A0E0B1E000
:10018000E0E0F9E402C005900D92A236B107D9F77C
:1001900024E0A2E6B2E001C01D92AD3EB207E1F755
:1001A00011E0CCE6D1E004C02297FE010E94F720C6
:1001B000C636D107C9F70E941D1B0C9473240C94FA
:1001C0000000CF93DF93EC016AE971E00E94691CA3
:1001D0006AE971E0CE010696DF91CF910C94691C1B
:1001E000CF92DF92EF92FF920F931F93CF93DF9303
:1001F000CDB7DEB72C970FB6F894DEBF0FBECDBFDC
:100200008C01FB01608171814AE00E94CF1C6AE988
:1002100071E0CE0107960E94691CE12CF12C83E06D
:10022000C82ED12CF801848195819601281B390BA9
:10023000E216F30648F460E3CE0107960E94641DBF
:10024000FFEFEF1AFF0AEECFBE01695F7F4FCE01CD
:1002500001960E94961CB801CE0101960E94771D5E
:10026000BC01C8010E947F1CCE0101960E94FB1BAD
:10027000CE0107960E94FB1BC8012C960FB6F8947E
:10028000DEBF0FBECDBFDF91CF911F910F91FF90C9
:10029000EF90DF90CF900895CF92DF92EF92FF9290
:1002A0000F931F93CF93DF9300D000D0CDB7DEB76D
:1002B0006C0179018EE090E04B835C8369837A83E3
:1002C0000E942C1B8C014B815C8169817A810E9488
:1002D000BB13F6011783068382E090E00E942C1B7B
:1002E000FC0111821082F60191878087F386E286F5
:1002F0000F900F900F900F90DF91CF911F910F9162
:10030000FF90EF90DF90CF9008950F931F93CF93BE
:10031000DF93EC018A01EE81FF818481958197FD55
:10032000019695958795998388832A813B818217C9
:10033000930711F1821B930B9D838C83019721F40A
:100340008BE494E00E94971B8C819D81019629F497
:10035000B8018BE494E00E94971B888199819B836C
:100360008A830A84DB85C02D81E08E830E94D517A5
:100370006F83788789879A87DF91CF911F910F913B
:100380000895CF92DF92EF92FF920F931F93CF9336
:10039000DF938C016AE271E00E94691C30E3E32E76
:1003A00033E0F32EC0E0D0E0F70181917F01BE0180
:1003B000811108C0C8010E94EC1D6C01BE018AECCD
:1003C00092E007C0C8010E94EC1D6C01BE018EEBDB
:1003D00092E00E94EC1DFC018081F6018083219651
:1003E000C031D10509F7C801DF91CF911F910F915D
:1003F000FF90EF90DF90CF9008950F931F93CF93CE
:10040000DF938C0161E084E00E94D31860E084E017
:100410000E94D31861E084E00E94D318CFE0D0E0BE
:10042000BE01C8010E94EC1D61E0FC0180818133A6
:1004300009F060E082E00E94D31860E083E00E944F
:10044000D31861E083E00E94D318219748F760E059
:1004500084E00E94D31861E084E00E94D31860E039
:1004600084E0DF91CF911F910F910C94D318BF922C
:10047000CF92DF92EF92FF920F931F93CF93DF9370
:1004800000D000D000D0CDB7DEB78C01B62E0E94D0
:10049000D517F801C080D180E280F3806C197D0906
:1004A0008E099F09BB2019F0C084D18403C0F801D4
:1004B000C680D780EE24D7FCE094FE2CC616D70663
:1004C000E806F906C8F5CE0101960E94C101BE01F9
:1004D0006F5F7F4F8EEB92E00E947F1CCE010196F2
:1004E0000E94FB1BF801648175818EEB92E00E94F3
:1004F000EC1DF8012285222311F021E301C020E345
:10050000FC0120836EEB72E0CE0101960E94961CE6
:10051000CE0101960E94FD01CE0101960E94FB1BB7
:10052000F801828591E0892782870E94D517F8011A
:10053000608371838283938326960FB6F894DEBF1F
:100540000FBECDBFDF91CF911F910F91FF90EF9024
:10055000DF90CF90BF900895EF92FF920F931F937B
:10056000CF93DF9300D000D000D0CDB7DEB78C01A1
:10057000CE0101960E94C101BE016F5F7F4F8EEBDD
:1005800092E00E947F1CCE0101960E94FB1BF801A5
:10059000648175818EEB92E00E94EC1D7C01F80174
:1005A000648175818AEC92E00E94EC1DFC018081DF
:1005B000F701808364EC72E08EEB92E00E94BA1D3A
:1005C000811114C06EEB72E0CE0101960E94961C60
:1005D000CE0101960E94FD01CE0101960E94FB1BF7
:1005E0006EEB72E084EC92E00E947F1C26960FB6C0
:1005F000F894DEBF0FBECDBFDF91CF911F910F9159
:10060000FF90EF900895883038F08E3040F08631BA
:1006100048F0E0E0F0E008C0EDE6F0E005C0EBE611
:10062000F0E002C0ECE6F0E09081883068F441E050
:1006300050E060E070E0082E04C0440F551F661FB4
:10064000771F0A94D2F715C0482F50E09A018E30D8
:1006500018F42850310902C02E50310941E050E011
:1006600060E070E004C0440F551F661F771F2A9595
:10067000D2F7492B40833BB3883050F021E08E30D5
:1006800008F420E091E001C0990F2A95EAF701C033
:1006900094E0932B9BBB20916800883050F091E050
:1006A0008E3008F490E081E001C0880F9A95EAF757
:1006B00001C084E0822B8093680008958F929F92FE
:1006C000AF92BF92CF92DF92EF92FF920F931F9360
:1006D000CF93DF93CDB7DEB72C970FB6F894DEBF7C
:1006E0000FBECDBF6C0101E010E04C01AA2497FCC5
:1006F000A094BA2CC8010697029790F16AE971E0BC
:10070000CE0107960E94691CE12CF12CE016F1063F
:1007100019F462EC71E002C069E371E0CE01079662
:100720000E94541D8FEFE81AF80A80E1E816F104E0
:1007300069F7BE01695F7F4FCE0101960E94961C4A
:10074000CE0101960E94FD01CE0101960E94FB1B85
:10075000C501B4010E940418CE0107960E94FB1B3C
:100760000F5F1F4F0F30110529F60DE010E0EE244A
:10077000D7FCE094FE2CC8010697029790F16AE935
:1007800071E0CE0107960E94691CA12CB12CA01625
:10079000B10619F462EC71E002C069E371E0CE01C8
:1007A00007960E94541D8FEFA81AB80A8FE0A8166A
:1007B000B10469F7BE01695F7F4FCE0101960E94C7
:1007C000961CCE0101960E94FD01CE0101960E9469
:1007D000FB1BC701B6010E940418CE0107960E94B8
:1007E000FB1B015011090130110529F62C960FB69B
:1007F000F894DEBF0FBECDBFDF91CF911F910F9157
:10080000FF90EF90DF90CF90BF90AF909F908F9030
:100810000895EF92FF920F931F93CF93DF9300D031
:1008200000D000D0CDB7DEB77C0101E010E0E016CB
:10083000F1065CF16BE371E0CE0101960E94691C48
:10084000CE0101960E94FD01CE0101960E94FB1B84
:100850006CE271E080E090E00E9404186AE271E0CE
:10086000CE0101960E94691CCE0101960E94FD01F5
:10087000CE0101960E94FB1B6CE271E080E090E0EB
:100880000E9404180F5F1F4FD2CF26960FB6F89420
:10089000DEBF0FBECDBFDF91CF911F910F91FF90B3
:1008A000EF900895CF93DF93CDB7DEB72C970FB6B7
:1008B000F894DEBF0FBECDBF6CE471E0CE010196AF
:1008C0000E94691C60E571E0CE0107960E94691CD8
:1008D000AE014F5F5F4FBE01695F7F4F8091500354
:1008E000909151030E948501CE0107960E94FB1B47
:1008F000CE0101960E94FB1B64E571E0CE010196DA
:100900000E94691C68E571E0CE0107960E94691C8F
:10091000AE014F5F5F4FBE01695F7F4F80914E0315
:1009200090914F030E948501CE0107960E94FB1B08
:10093000CE0101960E94FB1B6CE571E0CE01019691
:100940000E94691C60E671E0CE0107960E94691C56
:10095000AE014F5F5F4FBE01695F7F4F80914C03D7
:1009600090914D030E948501CE0107960E94FB1BCA
:10097000CE0101960E94FB1B64E671E0CE01019658
:100980000E94691C68E671E0CE0107960E94691C0E
:10099000AE014F5F5F4FBE01695F7F4F80914A0399
:1009A00090914B030E948501CE0107960E94FB1B8C
:1009B000CE0101960E94FB1B6CE671E0CE01019610
:1009C0000E94691C60E771E0CE0107960E94691CD5
:1009D000AE014F5F5F4FBE01695F7F4F809148035B
:1009E000909149030E948501CE0107960E94FB1B4E
:1009F000CE0101960E94FB1B2C960FB6F894DEBF29
:100A00000FBECDBFDF91CF9108950F931F93CF936A
:100A1000DF938091BC008B7F8093BC0062E082E119
:100A20000E949A1862E083E10E949A1868EC70E0D4
:100A300080E090E00E94041883E10E940919892B4C
:100A400009F444C082E10E94091921E0892B09F0D0
:100A500020E0C5E1D0E0222309F440C02197A1F1B4
:100A600060E083E10E949A1861E083E10E949A1895
:100A70008AE090E00E942C1860E083E10E949A18BE
:100A800062E083E10E949A188AE090E00E942C18AC
:100A900083E10E94091921E0892B09F020E005E19A
:100AA00010E02223A9F00150110961F064E670E022
:100AB00080E090E00E94041883E10E940919892BCC
:100AC00039F4F1CF82E031C083E02FC081E02DC046
:100AD00082E10E940919892B09F4C0CF60E082E10C
:100AE0000E949A1861E082E10E949A188AE090E0E0
:100AF0000E942C1860E082E10E949A1862E082E174
:100B00000E949A188AE090E00E942C1860E082E12E
:100B10000E949A1860E083E10E949A1864E771E0ED
:100B20008BE494E00E94A91B80E0DF91CF911F919C
:100B30000F910895683040F18091B902882319F02F
:100B40002091B50202C02091B302685084E593E081
:100B50000E947E12882319F162E871E08BE494E030
:100B60000E94A91B0E94050580E893E00E94F614EC
:100B700086E593E00E945D1384E593E00E945D1397
:100B800082E593E00C945D13663011F0613019F446
:100B90002091B80201C020E086E593E0D9CF089506
:100BA0009F92AF92BF92CF92DF92EF92FF920F93FC
:100BB0001F93CF93DF938C017B01CC24CA94DC2C50
:100BC000C0E0D0E0912CA12C50E2B52EF80182813A
:100BD0009381C817D9070CF09DC08091B302BE0164
:100BE000811105C08091B902882309F442C0C70170
:100BF0000E94EC1DFC018081BE018D3241F4C701D1
:100C00000E94EC1DDC01BC929924939437C0C7016B
:100C10000E94EC1DFC018081BE018B3251F1C701A5
:100C20000E94EC1DFC0180818033E1F5A1103AC0E7
:100C3000D80112968D919C9113970197C817D907E7
:100C400089F18091B902882399F0ED91FC91EC0F24
:100C5000FD1F8081863011F0813051F46BE070E02F
:100C60008AEC92E00E94EC1DFC0180818033D1F47B
:100C7000BE01C7010E94EC1DDC01BC92BE01C70190
:100C80000E94EC1DD801ED91FC91EC0FFD1FDC01E1
:100C90004C916081C8010E949A052196BFEFCB1A42
:100CA000DB0A94CF992099F18091B9028823A9F0A9
:100CB0006BE070E08AEC92E00E94EC1DDC018C910C
:100CC000813359F4F80180819181FC01EC0FFD1F03
:100CD0002081273041F0223031F0D801ED91FC9194
:100CE000EC0DFD1D0EC0FC01EC0DFD1D40E360810F
:100CF000C8010E949A05D801ED91FC91EC0FFD1FEF
:100D000032974DE26081C8010E949A05912CAA2475
:100D1000A394B4CFDF91CF911F910F91FF90EF90EB
:100D2000DF90CF90BF90AF909F9008950F931F9347
:100D3000CF93DF9300D000D000D0CDB7DEB78B01CA
:100D4000BC01CE0101960E94F000BE016F5F7F4F93
:100D5000C8010E94D005CE0101960E94FB1B269679
:100D60000FB6F894DEBF0FBECDBFDF91CF911F91BC
:100D70000F910895EF92FF920F931F93CF93DF93FC
:100D800000D000D000D0CDB7DEB78C017901FC01D6
:100D90007183608383E090E09383828355834483EF
:100DA00067E971E0CE0101960E94691CBE016F5F88
:100DB0007F4FC8010E94D005CE0101960E94FB1B07
:100DC000F8011682F486E38626960FB6F894DEBF05
:100DD0000FBECDBFDF91CF911F910F91FF90EF908C
:100DE0000895CF92DF92FF920F931F93CF93DF93DB
:100DF00000D000D000D0CDB7DEB726E040E052EC06
:100E000061E070E08BE494E00E94151A60E08DE0F0
:100E10000E949A1861E082E00E949A1861E083E0E3
:100E20000E949A1861E084E00E949A1860E086E5CA
:100E300093E00E944E1360E084E593E00E944E131D
:100E40006FEF86E593E00E9476126FEF84E593E002
:100E50000E9476121092B30283E090E00E942E1B53
:100E60008C0183E0F801808384E0818385E08283C4
:100E70008DE090E00E942C1B6C0128E932E040E0FC
:100E800050E0B8010E94BA06D0926B02C0926A028A
:100E900083E090E00E942E1B8C01FC011082FF2455
:100EA000F394F18282E082838DE090E00E942C1B1B
:100EB0006C0124EA32E041E050E0B8010E94BA0639
:100EC000D0926D02C0926C0283E090E00E942E1BD3
:100ED0008C018EE0F801808386E0818387E0828345
:100EE0008DE090E00E942C1B6C012CE832E042E087
:100EF00050E0B8010E94BA06D0926F02C0926E0212
:100F000083E090E00E942E1B8C0188E0F801808332
:100F100089E081838AE082838DE090E00E942C1B2F
:100F20006C0124E732E043E050E0B8010E94BA06C9
:100F3000D0927102C092700283E090E00E942E1B5A
:100F40008C018BE0F80180838CE081838DE08283CB
:100F50008DE090E00E942C1B6C0120E832E044E020
:100F600050E0B8010E94BA06D0927302C092720299
:100F70008CE090E00E942C1B8C0120916A02309141
:100F80006B024AE050E06BE070E00E944C0110936D
:100F90005103009350038CE090E00E942C1B8C01C5
:100FA00020916C0230916D0246E050E067E070E005
:100FB0000E944C0110934F0300934E038CE090E08D
:100FC0000E942C1B8C0120916E0230916F0248E030
:100FD00050E069E070E00E944C0110934D030093D3
:100FE0004C038CE090E00E942C1B8C01209172023B
:100FF000309173024FE050E06EE070E00E944C01CF
:1010000010934B0300934A038CE090E00E942C1B4A
:101010008C01209170023091710241E150E060E159
:1010200070E00E944C0110934903009348038BE049
:1010300090E00E942C1BFC0183E090E09583848368
:101040000AEF10E0178306836DE7C62ED12CD186F8
:10105000C086F0923303F0934703E09346038BE09E
:1010600090E00E942C1BFC018DE090E0958384832E
:10107000D782C68211870087F0923D03F093450323
:10108000E09344038BE090E00E942C1BFC0185E080
:1010900090E09583848382E890E09783868311872C
:1010A0000087F0923503F0934303E09342038BE013
:1010B00090E00E942C1BFC0181E090E095838483EA
:1010C00087E890E09783868311870087F092310349
:1010D000F0934103E093400382E593E00E945D13A7
:1010E00086E593E00E945D1384E593E00E945D1322
:1010F00064EF71E080E090E00E9404186FE086E504
:1011000093E00E947A126FE084E593E00E947A12E5
:1011100081E090E00E94090460E070E082E593E0E5
:101120000E94E8120D97A1F4F092B90282E390E0D8
:101130000E945E036AE271E0CE0101960E94691C82
:10114000CE0101960E94FD01CE0101960E94FB1B7B
:101150008DE00E9403038091B902882321F082E090
:1011600090E00E94090426960FB6F894DEBF0FBEE9
:10117000CDBFDF91CF911F910F91FF90DF90CF9066
:1011800008950F931F93CF93DF9300D000D000D02A
:10119000CDB7DEB7DC018B011696ED91FC91179768
:1011A0004481558157FF02C04F5F5F4F559547956A
:1011B00011965C934E9312968D919C9113974817BC
:1011C0005907E1F19A01281B390BC90115963C9387
:1011D0002E9314971896ED91FC91199721303105B3
:1011E00049F4208131812F5F3F4F283E83E038074B
:1011F00064F421C0019659F42081318121503109D4
:10120000318320832D393F4F14F4118210821396BD
:101210005C934E931297BF01CE0101960E94F0009D
:10122000BE016F5F7F4FC8010E94D005CE010196BD
:101230000E94FB1B03C031832083E9CF26960FB6A3
:10124000F894DEBF0FBECDBFDF91CF911F910F91FC
:1012500008950F931F93CF93DF9300D000D000D059
:10126000CDB7DEB78C018091B702F8016385748534
:10127000882329F08681811102C06A5F7F4FCE01E9
:1012800001960E94961CBE016F5F7F4FC8010E94AD
:10129000D005CE0101960E94FB1B26960FB6F8944E
:1012A000DEBF0FBECDBFDF91CF911F910F9108958B
:1012B0000F931F93CF93DF931F92CDB7DEB7BE017D
:1012C0006F5F7F4F82E593E00E94E8128C01898175
:1012D0008430C0F06BE971E08BE494E00E94A91BBC
:1012E0000E94050580E893E00E94F61486E593E0ED
:1012F0000E945D1384E593E00E945D1382E593E014
:101300000E945D13C80101978E3F910518F080E09F
:1013100090E001C0C8010F90DF91CF911F910F9114
:1013200008951F920F920FB60F921124EF92FF9221
:101330000F931F932F933F934F935F936F937F93DD
:101340008F939F93AF93BF93EF93FF93CF93DF93CD
:10135000CDB7DEB72697DEBFCDBF78948DE00E9473
:101360000919892B09F09CC10E9458099093BD026C
:101370008093BC02181619060CF038C22091B902ED
:10138000222309F432C164E070E08AEC92E00E940A
:10139000EC1DFC018081E091BC02F091BD02813323
:1013A00019F4E830F105B9F5E130F105A1F1EE0FDE
:1013B000FF1FE85FFE4F608171818AEC92E00E941E
:1013C000EC1D8C01E091BC02F091BD02EE0FFF1FFD
:1013D000E85FFE4F608171818AEC92E00E94EC1D13
:1013E000FC018081803309F4FFC180E3F801808330
:1013F0008091B702882309F4F4C16EEB72E0CE014C
:1014000001960E94961CCE0101960E94FD01CE011C
:1014100001960E94FB1BE091BC02F091BD02319746
:10142000EF30F10508F0E2C1EC5CFF4F0C94F520C1
:10143000E0915803F09159030995D8C16CE070E030
:101440008AEC92E00E94EC1D21E0FC018081813356
:1014500009F020E02093B5026BE070E08AEC92E0A6
:101460000E94EC1DFC018081813311F080E017C0E7
:1014700068E070E08AEC92E00E94EC1DFC01808143
:101480008133A1F765E070E08AEC92E00E94EC1DE8
:1014900021E0FC018081803309F020E0822F8093DD
:1014A000B80269E070E08AEC92E00E94EC1DFC0159
:1014B0008081803309F09AC16AE070E08AEC92E0A2
:1014C0000E94EC1DFC018081813309F08FC168E02E
:1014D00070E08AEC92E00E94EC1DFC018081813377
:1014E00009F084C160E086E593E00E944E1360E05D
:1014F00084E593E00E944E1360916A0270916B0242
:10150000E0915003F0915103808591850E949606E9
:1015100060916C0270916D02E0914E03F0914F0367
:10152000808591850E94960660916E0270916F028F
:10153000E0914C03F0914D03808591850E949606C1
:101540006091700270917102E0914803F09149033B
:10155000808591850E949606609172027091730257
:10156000E0914A03F0914B03808591850E94960695
:101570003DC164E070E08AEC92E00E94EC1DFC0149
:101580008081813349F51092B7026BE371E08AECF8
:1015900092E00E949F1C00E010E021E0063011055F
:1015A00021F00130110509F020E048E0602F86E5C8
:1015B00093E00E947E120F5F1F4F0830110569F7FC
:1015C00010E021E048E0612F84E593E00E947E1264
:1015D0001F5F1730B1F7EFC01092B8026AE271E0F6
:1015E0008AEC92E00E949F1CE6C02091B402222364
:1015F00009F4FCC08230910529F124F48130910571
:10160000B1F040C08C30910569F18D309105D1F574
:1016100064EC71E08BE494E00E94A91B64EC71E03F
:101620008BE494E00E94A91B68EC71E0D5C00E9495
:10163000D517609366027093670280936802909357
:101640006902D4C061E070E08AEC92E00E94EC1D77
:10165000FC018081803319F460EB71E0BDC065EB63
:1016600071E0BAC065E070E08AEC92E00E94EC1D87
:10167000FC018081803319F46AEB71E0ADC06FEB3F
:1016800071E0AAC0019726E0289FB001299F700D44
:10169000112460537D4F8BE494E00E94971BA6C0F9
:1016A0008091B402811105C08091B902882309F4A8
:1016B0009DC08091BC029091BD02019709F096C037
:1016C0000E94D5170091660210916702209168026E
:1016D00030916902601B710B820B930B6D3271406C
:1016E0008105910508F44DC06AEC72E08EEB92E042
:1016F0000E947F1CE0914603F091470381E08287BE
:101700001082118212821382E0914403F09145030A
:1017100082871082118212821382E0914203F0913B
:10172000430382871082118212821382E091400368
:10173000F091410312860AE612E0F801E190F1907F
:101740008F01F70116820E94D517F7016783708712
:1017500081879287F2E004371F0779F78091B702FB
:1017600091E089278093B7029091B9029923F1F112
:1017700081113CC063E070E08AEC92E00E94EC1DB5
:101780001AC08091B902882329F163E070E08AECE5
:1017900092E00E94EC1D8C0163E070E08AEC92E024
:1017A0000E94EC1DFC018081803311F481E301C0B3
:1017B00080E3F80180836AEC72E0CE0101960E941A
:1017C000961CCE0101960E94FD01CE0101960E9459
:1017D000FB1B0CC060ED71E08BE494E00E94A91B40
:1017E00005C06AEC72E00BCE81E300CE26960FB600
:1017F000F894DEBF0FBECDBFDF91CF91FF91EF9187
:10180000BF91AF919F918F917F916F915F914F9118
:101810003F912F911F910F91FF90EF900F900FBE6E
:101820000F901F901895CF93DF93EC0106960E94BE
:10183000FB1BCE01DF91CF910C94FB1B61E086E591
:1018400093E00E943B1262E084E593E00E943B1229
:1018500063E082E593E00E943B1260ED71E080ED71
:1018600092E00E94691C64ED71E086ED92E00E94B6
:10187000691C68ED71E08CED92E00E94691C6AE9D8
:1018800071E082EE92E00E94691C6CED71E088EEDE
:1018900092E00E94691C6CED71E08EEE92E00E9475
:1018A000691C60EE71E084EF92E00E94691C64EEB6
:1018B00071E08AEF92E00E94691C6AE971E080E0C1
:1018C00093E00E94691C6AE971E086E093E00E945F
:1018D000691C68EE71E08CE093E00E94691C64EC86
:1018E00071E082E193E00E94691C6AE971E088E19D
:1018F00093E00E94691C6DEE71E08EE193E00E941E
:10190000691C61EF71E084E293E00E94691C65EF5D
:1019100071E08AE293E00E94691C6AE271E08AEC5D
:1019200092E00E94691C6AE271E084EC92E00E94FD
:10193000691C6AE271E08EEB92E00E94691C84EA05
:1019400092E00E94E10088E992E00E94E1008CE8C8
:1019500092E00E94E10080E892E00E94E10084E7CA
:1019600092E00C94E100CF93DF9384E792E00E9431
:10197000130C80E892E00E94130C8CE892E00E9425
:10198000130C88E992E00E94130C84EA92E00E9412
:10199000130C8EEB92E00E94FB1B84EC92E00E9401
:1019A000FB1B8AEC92E00E94FB1BC0E3D3E026976E
:1019B000CE010E94FB1B82E0C03DD807C1F7DF913A
:1019C000CF9108950F931F930E94D51760936202E1
:1019D0007093630280936402909365028BE494E0B9
:1019E0000E943219892BA9F40E94D5170091620236
:1019F000109163022091640230916502601B710BAB
:101A0000820B930B693E73408105910538F380E3A7
:101A100004C08BE494E00E944B191F910F9108952C
:101A2000EF92FF920F931F93CF93DF93EC017B0113
:101A30006AE971E00E94691C00E010E00E151F05C4
:101A4000ACF40E94E20C90ED980F9A3030F093EDD8
:101A5000980F923010F08B3211F4682F01C060E3C0
:101A6000CE010E94641D0F5F1F4FE8CFCE01DF91B2
:101A7000CF911F910F91FF90EF9008950F931F93B7
:101A8000CF93DF9300D000D000D0CDB7DEB70E9457
:101A9000E20C282F332727FD30953093BB0220938B
:101AA000BA02992787FD9095A92FB92FFC01E1561D
:101AB000F109E631F10508F0BEC0ED5BFF4F0C9473
:101AC000F52068E070E002C065E070E08AEC92E02A
:101AD0000E94EC1D8C010E94E20CF8018083ABC0D7
:101AE00064E070E0F3CF62E070E0F0CF63E070E0BC
:101AF000EDCF61E070E0EACF6BE070E0E7CF6EE041
:101B000070E0E4CF65E070E0CE0101960E94100D18
:101B1000BE016F5F7F4F84EA92E023C063E070E014
:101B2000CE0101960E94100DBE016F5F7F4F88E9C4
:101B300092E017C065E070E0CE0101960E94100DA2
:101B4000BE016F5F7F4F8CE892E00BC063E070E0F6
:101B5000CE0101960E94100DBE016F5F7F4F80E89D
:101B600092E00E947F1CCE0101960E94FB1B63C085
:101B700063E070E0CE0101960E94100DBE016F5F20
:101B80007F4F84E792E00E947F1CCE0101960E9465
:101B9000FB1B64E772E08AE792E00E947F1C4BC067
:101BA0000E94E20C8093B0028091B302882309F472
:101BB00042C06CE070E08AEC92E00E94EC1D209143
:101BC000B00237C00E94E20C8093B2028091B3024F
:101BD000882389F169E070E08AEC92E00E94EC1DB4
:101BE0002091B202FC0120836AE070E08AEC92E06E
:101BF0000E94EC1D8C0169E070E08AEC92E00E948A
:101C0000EC1DFC018081803311F481E366CF80E319
:101C100064CF0E94E20C8093B1028091B3028823CA
:101C200051F06DE070E08AEC92E00E94EC1D209192
:101C3000B102FC01208326960FB6F894DEBF0FBEDA
:101C4000CDBFDF91CF911F910F9108950F931F93F7
:101C5000CF93DF93CDB7DEB72C970FB6F894DEBFE6
:101C60000FBECDBF0E94E20C282F332727FD3095F1
:101C70003093BB022093BA02853509F098C062E028
:101C800070E0CE0107960E94100D0E94E20C0E94A7
:101C9000E20CCE0107960E94431E672B682B692B2E
:101CA00009F041C01092B30269E070E08AEC92E062
:101CB0000E94EC1D10E3FC0110836AE070E08AECE6
:101CC00092E00E94EC1DFC0110836CE070E08AEC55
:101CD00092E00E94EC1DFC0110836DE070E08AEC44
:101CE00092E00E94EC1DFC0110830AE612E067E31B
:101CF00071E0CE0101960E94691CBE016F5F7F4FAB
:101D0000F801819191918F010E94D005CE01019639
:101D10000E94FB1BF2E004371F0749F7CE0107962C
:101D20000E94FB1B44C081E08093B30269E070E035
:101D30008AEC92E00E94EC1D2091B202FC0120830B
:101D40006AE070E08AEC92E00E94EC1D8C0169E090
:101D500070E08AEC92E00E94EC1DFC0180818033EF
:101D600011F481E301C080E3F80180836CE070E04E
:101D70008AEC92E00E94EC1D2091B002FC012083CD
:101D80006DE070E08AEC92E00E94EC1D2091B102BF
:101D9000FC0120830AE612E0F801819191918F0104
:101DA0000E942909F2E004371F07B1F7B7CF2C963C
:101DB0000FB6F894DEBF0FBECDBFDF91CF911F915C
:101DC0000F910895CF93DF93CDB7DEB72C970FB661
:101DD000F894DEBF0FBECDBF0E94E20C282F332740
:101DE00027FD30953093BB022093BA028A3409F163
:101DF0007CF4843409F068C065E070E0CE0101969F
:101E00000E94100DBE016F5F7F4F8AEA92E01CC0F6
:101E10008C34F9F0803509F057C063E070E0CE01F2
:101E200001960E94100DBE016F5F7F4F8EE992E018
:101E30000BC063E070E0CE0101960E94100DBE0160
:101E40006F5F7F4F86E892E00E947F1CCE01019673
:101E500039C066E070E0CE0101960E94100DBE010F
:101E60006F5F7F4F82E992E00E947F1CCE01019656
:101E70000E94FB1B26E030E042E050E062E972E0A5
:101E8000CE0107960E94FE1D60E070E082E992E0BC
:101E90000E94EC1DFC016081CE0101960E94B71CDE
:101EA000BE01695F7F4FCE0101960E94771DBC0184
:101EB00082E992E00E947F1CCE0101960E94FB1BEA
:101EC000CE0107960E94FB1B2C960FB6F894DEBF3E
:101ED0000FBECDBFDF91CF9108958F929F92AF92A9
:101EE000BF92EF92FF920F931F93CF93DF9300D097
:101EF00000D000D0CDB7DEB78091B902882309F4B5
:101F000049C164E070E08AEC92E00E94EC1DFC01A3
:101F10008081803309F0F2C068E070E08AEC92E0E2
:101F20000E94EC1DFC018081813309F0C0C069E092
:101F300070E08AEC92E00E94EC1DFC01808181330C
:101F400051F50AE612E028EE33E040E050E060E0B0
:101F500070E0CB010E94DF1BAB01BC012AE0CE0187
:101F600001960E94FB1CBE016F5F7F4FF8018191BB
:101F700091918F010E94D005CE0101960E94FB1B1A
:101F8000F2E004371F07F9F668EC70E080E090E0BB
:101F90000E940418B3C06AE070E08AEC92E00E94EC
:101FA000EC1DFC018081813399F560916A0270918A
:101FB0006B0280915003909151030E94C10860917F
:101FC0006C0270916D0280914E0390914F030E94BC
:101FD000C10860916E0270916F0280914C039091E4
:101FE0004D030E94C108609170027091710280914E
:101FF0004803909149030E94C10860917202709158
:10200000730280914A0390914B030E94C10876C0ED
:1020100061E086E593E00E944E1361E084E593E081
:102020000E944E1310E020E0412F612F86E593E0DF
:102030000E947E128430A0F069EF71E08BE494E09E
:102040000E94A91B0E94050580E893E00E94F614F7
:1020500086E593E00E945D1384E593E00E945D13A2
:102060001F5F183001F710E02091B50248E0410FE2
:10207000612F84E593E00E947E128430A0F069EF26
:1020800071E08BE494E00E94A91B0E94050580E8A2
:1020900093E00E94F61486E593E00E945D1384E5C8
:1020A00093E00E945D131F5F1730F1F66DCF60E083
:1020B00086E593E00E944E1360E084E593E00E9481
:1020C0004E131092B5020AE612E0F801E190F19089
:1020D0008F0167E971E0CE0101960E94691CBE0183
:1020E0006F5F7F4FC7010E94D005CE0101960E940D
:1020F000FB1BF2E004371F0741F746CF8091B70280
:10210000882309F4A7C163E070E08AEC92E00E94A2
:10211000EC1D61E0FC018081813309F060E0809179
:102120004603909147030E9437026DE070E08AEC0D
:1021300092E00E94EC1DFC018081813339F460E063
:1021400080914403909145030E94370265E070E05E
:102150008AEC92E00E94EC1DFC018081813339F40D
:1021600060E080914203909143030E94370261E056
:1021700070E08AEC92E00E94EC1DFC0180818133CA
:1021800009F068C160E080914003909141030E9492
:10219000370260C10E9452048BE494E00E9432191D
:1021A000892B39F48091B7029091B60289135DC0F2
:1021B0006AC00E94E20C992787FD90959093BB021C
:1021C0008093BA028D33910541F40E943E0D81E067
:1021D0008093B4020AE612E03DC08F33910519F4F2
:1021E0000E94260EF4CFCC9719F40E94E20EEFCF96
:1021F0006AE971E0CE0101960E94691C8BE494E0CB
:102200000E943219892B51F08BE494E00E944B1903
:10221000682FCE0101960E94641DF0CF8D819E81B2
:10222000892B99F063E072E08BE494E00E94A91B93
:10223000BE016F5F7F4F8BE494E00E94971B63E0C9
:1022400072E08BE494E00E94A91BCE0101960E94EB
:10225000FB1BC0CFF801819191918F010E94290948
:10226000F2E004371F07B1F79DCF8093B6020AE66C
:1022700012E0F801819191918F010E942909F2E009
:1022800004371F07B1F78091B702882309F486C08D
:102290008091B302882309F481C063E070E08AEC86
:1022A00092E00E94EC1D61E0FC018081813309F025
:1022B00060E080914603909147030E9437026DE0F1
:1022C00070E08AEC92E00E94EC1DFC018081813379
:1022D00009F0A4C068E972E08EE992E00E94BA1D9C
:1022E00081119CC060E080914403909145030E945D
:1022F000370265E070E08AEC92E00E94EC1DFC0180
:1023000080818133F9F423E030E041E050E062E97C
:1023100072E0CE0101960E94FE1D68E371E0CE01DD
:1023200001960E94CD1D182FCE0101960E94FB1B25
:10233000111108C060E080914203909143030E9414
:10234000370206C080914203909143030E94AC0281
:1023500061E070E08AEC92E00E94EC1DFC0180815B
:10236000813309F06AC060E872E086E892E00E947A
:10237000BA1D811162C06EE172E086E892E00E94AF
:10238000CD1D882309F451C067E371E080E892E035
:102390000E94CD1D882309F448C04FC064EC72E050
:1023A0008AEC92E00E94BA1D882329F01AE6E12EF9
:1023B00012E0F12E2AC06AEC72E0CE0101960E9472
:1023C000961CCE0101960E94FD01CE0101960E944D
:1023D000FB1B6AEC72E084EC92E00E947F1CE6CF6B
:1023E0000E94D517F80187809084A184B28468196F
:1023F00079098A099B09613D77408105910520F59E
:1024000024E7E21622E0F20629F1F7010191119189
:102410007F01F8018681882399F3E2CF80914403FC
:10242000909145030E94AC0264CF60E0809140032C
:10243000909141030E943702B9CF8091400390915F
:1024400041030E94AC02B2CFF8011682C8010E947B
:102450002909D6CF26960FB6F894DEBF0FBECDBFA2
:10246000DF91CF911F910F91FF90EF90BF90AF90B0
:102470009F908F900895FC01608321E0218380E884
:1024800093E00C94F614682F70E080E090E00E94D6
:102490004D1F0E94E01F28E132E741E35FE30E9405
:1024A000B41E0E941C1FCB0108951F93CF93DF938E
:1024B0001F92CDB7DEB7162FFC01608180E893E054
:1024C00049830E940D15612F80E893E00E94B714A4
:1024D0004981642F80E893E00E94B71480E893E07C
:1024E0000F90DF91CF911F910C941915462F69E041
:1024F0000C945512462F6AE00C945512FC01318160
:1025000031110FC0453469F128F4403291F14D3258
:1025100031F130C04C3449F1403549F1483451F57E
:1025200022C0463431F168F44334E9F028F44134F0
:10253000B1F04234B1F01EC04434B9F04534B9F0C2
:1025400019C0433681F028F4413649F0423649F04B
:1025500011C0453661F048F0463659F00BC04AE0EC
:1025600009C04BE007C04CE005C04DE003C04EE0A1
:1025700001C04FE0213009F440686F5F0C945512A0
:10258000FF920F931F93CF93DF93EC01F62E8A01F6
:10259000688180E893E00E940D156F2D80E893E03C
:1025A0000E94B71480E893E00E941915F801808317
:1025B00041E0688180E893E00E94001580E893E0A4
:1025C0000E946714DF91CF911F910F91FF900895A2
:1025D000FF920F931F93CF93DF93EC018B01AB011D
:1025E0006CE10E94C012F82EA8016DE1CE010E949C
:1025F000C0128F3F29F080950E944312019609C0B6
:102600008FEFF81631F08F2D80950E9443120996B6
:1026100000C0DF91CF911F910F91FF900895CF924D
:10262000DF92EF92FF920F931F93CF93DF931F924E
:10263000CDB7DEB76C01F62EE42E40E050E02983E2
:102640000E94C0122981222371F001E010E020E0F5
:1026500030E004C0000F111F221F331FEA94D2F78D
:10266000482F402B0EC001E010E020E030E004C015
:10267000000F111F221F331FEA94D2F7402F4095FD
:1026800048236F2DC6010F90DF91CF911F910F91BD
:10269000FF90EF90DF90CF900C9455121F93CF9343
:1026A000DF93EC01162F262F42E06EE00E940F13FD
:1026B0001983DF91CF911F910895CF93DF93EC01A0
:1026C00060E070E080E893E00E9417156CE080E81D
:1026D00093E00E94B71461E080E893E00E94B71491
:1026E00080E893E00E94191560E070E080E893E0D4
:1026F0000E9417156DE280E893E00E94B71461E034
:1027000080E893E00E94B71480E893E00E941915D6
:1027100064E170E080E090E00E94041841E06CE029
:10272000CE010E94551247E06BE0CE010E94551287
:102730006FEFCE010E947A126FEFCE010E947612E7
:102740006981CE01DF91CF910C944E130F931F93AB
:10275000CF93DF93EC018A810E9409198C01888153
:102760000E940919000F111F802B912BDF91CF912F
:102770001F910F910895FF920F931F93CF93DF93B3
:10278000EC018B01F42E798368834A835B831D827D
:102790001C821F821E82198618861A861B8660E09C
:1027A000802F0E949A1860E08F2D0E949A1861E095
:1027B000802F0E94D31861E08F2D0E94D318CE0184
:1027C0000E94A6139D878C87E0E7F0E080818160FE
:1027D0008083F801EE0FFF1FE65AFC4FD183C083C0
:1027E000DF91CF911F910F91FF9008950F931F9349
:1027F000CF93DF930AE513E0F801C191D1918F01E6
:10280000209781F1CE010E94A6132C853D85821769
:10281000930741F12C813D81EC85FD85EE0FFF1F73
:10282000EE0FFF1FE80FF91FEE0FFF1FEE5DFD4FCC
:1028300040815181240F351F4A85442331F04E8158
:102840005F81241735070CF49A014B85442331F03E
:1028500048855985421753070CF49A013D832C8310
:102860009D878C87F3E000381F0731F6DF91CF9109
:102870001F910F9108951F920F920FB60F9211247E
:102880002F933F934F935F936F937F938F939F9378
:10289000AF93BF93EF93FF930E94F613FF91EF91D5
:1028A000BF91AF919F918F917F916F915F914F9168
:1028B0003F912F910F900FBE0F901F901895809110
:1028C000B00390E02091B103821B910908952091FB
:1028D000B1038091B003281750F4E22FF0E0EE54DA
:1028E000FC4F808190E02F5F2093B10308958FEF1C
:1028F0009FEF0895E091B1038091B003E81730F4A1
:10290000F0E0EE54FC4F808190E008958FEF9FEF50
:1029100008950895CF92DF92EF92FF920F931F9345
:10292000CF93DF937C01CB018A0120918C0322237A
:1029300089F0EB016B01C40ED51ECC15DD0569F0E5
:102940006991D701ED91FC910190F081E02DC701D3
:102950000995F3CF642F0E944615C801DF91CF91EE
:102960001F910F91FF90EF90DF90CF900895CF933C
:10297000DF931F92CDB7DEB7698320918C032223AA
:10298000D1F020918D03203240F021E030E0FC01B5
:102990003383228380E090E015C080918E03E82F7E
:1029A000F0E0E157FC4F998190838F5F80938E0315
:1029B00080938D0305C061E0CE0101960E9446150B
:1029C00081E090E00F90DF91CF910895FC01138298
:1029D000128248EE53E060E070E0448355836683E2
:1029E000778386E492E09183808308951092B10307
:1029F0001092B00310928E0310928D030C942D153B
:102A0000862F413208F040E262EB73E00E949E158F
:102A10001092B1038093B003089581E080938C03FA
:102A20006093AF0310928E0310928D0308950C945F
:102A30000D1521E040918D036FE873E08091AF03A5
:102A40000E94EE1510928E0310928D0310928C034B
:102A5000089580E893E00C94E6141092410460E03D
:102A600082E10E94D31860E083E10E94D318E9EB71
:102A7000F0E080818E7F808380818D7F808388E4F9
:102A80008093B80085E48093BC000895613298F487
:102A900020914104243089F46093F803FC018AEF0B
:102AA00093E0DC012A2F281B261718F421912D937F
:102AB000F9CF80E0089581E0089582E0089585ECE3
:102AC0008093BC00109241040895882349F010922D
:102AD000D2031092D3031092D4031092D50313C0E3
:102AE0008091D2039091D303A091D403B091D503E8
:102AF0000196A11DB11D8093D2039093D303A0939F
:102B0000D403B093D5038091D2039091D303A091C5
:102B1000D403B091D503803A9648A140B10560F046
:102B20001092D2031092D3031092D4031092D503C3
:102B30000E942D1581E0089580E008950F931F9362
:102B4000CF93DF93082F162FD72FC42F413208F0D1
:102B50003FC081E00E94651580914104882329F0DF
:102B600080E00E9465158823B9F381E080934104D9
:102B70008FEF8093D60310921B048C0F80931A045E
:102B8000802F880F81608093400485EE8093BC0085
:102B900081E00E94651580914104813029F480E034
:102BA0000E9465158823B9F380911B048C1710F4DB
:102BB000C0911B042CE134E0E12FFD2FD9018A2FB5
:102BC000821B8C1718F48D918193F9CF8C2F01C043
:102BD00080E0DF91CF911F910F910895FF920F93A5
:102BE0001F93CF93DF93182FF62E072FC42FD22FCA
:102BF00081E0413208F050C00E9465158091410487
:102C0000882339F080E00E9465158823B9F385E0B8
:102C100043C082E0809341048FEF8093D6031092EB
:102C20001B04C0931A04EF2DF02F6CE174E0DB015C
:102C30008A2F861B8C1718F481918D93F9CF812FE1
:102C400090E0880F991F8093400485EE8093BC002C
:102C500081E00E946515D11105C08091D6038F3F98
:102C600061F415C0809141048230B9F780E00E9480
:102C700065158823B9F386E00FC08091D6038032B2
:102C800041F08091D603803331F483E005C080E0C9
:102C900003C082E001C084E0DF91CF911F910F91CA
:102CA000FF90089585ED8093BC0081E00E9465153A
:102CB0008091BC0084FF06C080E00E9465158823D7
:102CC000B9F302C01092410408951F920F920FB6FB
:102CD0000F9211242F933F934F935F936F937F93A2
:102CE0008F939F93AF93BF93EF93FF938091B9001E
:102CF000887F803609F495C068F5883209F45BC096
:102D000090F4803109F454C038F4882309F4EEC0FB
:102D1000883009F44DC0EEC0883109F44CC08032CF
:102D200009F45EC0E7C0803409F469C048F4803318
:102D300009F456C0883309F0DDC08093D603A1C0E2
:102D4000803509F450C0883509F45EC0883409F034
:102D5000D1C0CEC0883909F4BFC0A8F4883709F4BF
:102D600060C038F4883609F45CC0803709F459C073
:102D7000C1C0883809F4B0C0803909F458C080381F
:102D800009F0B8C054C0803B09F47EC038F4803AE2
:102D900009F45FC0883A09F477C0ACC0803C09F4FC
:102DA0009FC0883C09F49CC0883B09F482C0A2C043
:102DB0008091400411C090911B0480911A049817CF
:102DC00008F096C0E0911B0481E08E0F80931B04F5
:102DD000F0E0E45EFB4F80818093BB0085EC7DC01A
:102DE0008093D60385C0E0911B0481E08E0F809311
:102DF0001B048091BB00F0E0E45EFB4F8083909168
:102E00001B0480911A0465C0E0911B0481E08E0FC1
:102E100080931B048091BB00F0E0E45EFB4F808355
:102E200067C083E0809341041092D703D7CF80918D
:102E3000D703803208F050C0E091D70381E08E0FB5
:102E40008093D7038091BB00F0E0E852FC4F808371
:102E5000C5CF8091D703803230F4E091D703F0E002
:102E6000E852FC4F10820E9452166091D70370E026
:102E7000E0913C04F0913D0488ED93E009951092B7
:102E8000D7030E945F1536C084E0809341041092FE
:102E9000F9031092F803E0913E04F0913F04099584
:102EA0008091F803811105C081E08093F8031092AE
:102EB000FA03E091F90381E08E0F8093F903F0E0CB
:102EC000E650FC4F80818093BB009091F903809184
:102ED000F803981708F482CF85E88093BC000AC0F5
:102EE00085EC8093BC001092410404C01092D6037C
:102EF0000E945216FF91EF91BF91AF919F918F91D8
:102F00007F916F915F914F913F912F910F900FBEE5
:102F10000F901F9018951F920F920FB60F921124C9
:102F20002F933F938F939F93AF93BF9380914304CD
:102F300090914404A0914504B0914604309142041C
:102F400023E0230F2D3720F40196A11DB11D05C0EC
:102F500026E8230F0296A11DB11D20934204809301
:102F6000430490934404A0934504B0934604809195
:102F7000470490914804A0914904B0914A040196F5
:102F8000A11DB11D8093470490934804A093490468
:102F9000B0934A04BF91AF919F918F913F912F9130
:102FA0000F900FBE0F901F9018952FB7F894609157
:102FB00043047091440480914504909146042FBFCE
:102FC00008953FB7F8948091470490914804A091E8
:102FD0004904B0914A0426B5A89B05C02F3F19F0BB
:102FE0000196A11DB11D3FBF6627782F892F9A2F0B
:102FF000620F711D811D911D42E0660F771F881FB2
:10300000991F4A95D1F70895CF92DF92EF92FF92E0
:10301000CF93DF936B017C010E94E117EB01C11498
:10302000D104E104F10489F00E944E1E0E94E117D0
:103030006C1B7D0B683E734090F381E0C81AD10889
:10304000E108F108C851DC4FEACFDF91CF91FF9042
:10305000EF90DF90CF900895019739F0880F991F76
:10306000880F991F02970197F1F70895789484B516
:10307000826084BD84B5816084BD85B5826085BD74
:1030800085B5816085BDEEE6F0E08081816080835A
:10309000E1E8F0E01082808182608083808181603D
:1030A0008083E0E8F0E0808181608083E1EBF0E004
:1030B000808184608083E0EBF0E0808181608083A8
:1030C000EAE7F0E080818460808380818260808391
:1030D0008081816080838081806880831092C100BC
:1030E0000895833081F028F4813099F08230A1F086
:1030F00008958730A9F08830B9F08430D1F48091F8
:1031000080008F7D03C0809180008F778093800046
:10311000089584B58F7702C084B58F7D84BD0895EE
:103120008091B0008F7703C08091B0008F7D809335
:10313000B0000895CF93DF9390E0FC01E05EFE4F76
:103140002491FC01EC5CFE4F8491882349F190E0CE
:10315000880F991FFC01E45AFE4FA591B4918E5A35
:103160009E4FFC01C591D4919FB7611108C0F8949E
:103170008C91209582238C93888182230AC06230AF
:1031800051F4F8948C91322F309583238C9388815D
:10319000822B888304C0F8948C91822B8C939FBFE0
:1031A000DF91CF9108950F931F93CF93DF931F92D9
:1031B000CDB7DEB7282F30E0F901E45FFE4F8491F0
:1031C000F901E05EFE4F1491F901EC5CFE4F0491B1
:1031D0000023C9F0882321F069830E947118698156
:1031E000E02FF0E0EE0FFF1FEE5AFE4FA591B491D5
:1031F0009FB7F8948C91611103C01095812301C091
:10320000812B8C939FBF0F90DF91CF911F910F91D6
:103210000895CF93DF93282F30E0F901E45FFE4F4C
:103220008491F901E05EFE4FD491F901EC5CFE4F10
:10323000C491CC2391F081110E947118EC2FF0E021
:10324000EE0FFF1FE85BFE4FA591B4912C912D234B
:1032500081E090E021F480E002C080E090E0DF9126
:10326000CF910895FC01818D228D90E0805C9F4F6D
:10327000821B91098F7399270895FC01918D828D8E
:10328000981731F0828DE80FF11D858D90E008953B
:103290008FEF9FEF0895FC01918D828D981761F05B
:1032A000828DDF01A80FB11D5D968C91928D9F5F7D
:1032B0009F73928F90E008958FEF9FEF08958FECAA
:1032C0009AE1892B49F080E090E0892B29F00E9457
:1032D000CF1A81110C9400000895FC01848DDF0148
:1032E000A80FB11DA35ABF4F2C91848D90E0019679
:1032F0008F739927848FA689B7892C93A089B18968
:103300008C9180648C93938D848D981306C0028871
:10331000F389E02D80818F7D80830895CF93DF93A3
:10332000EC01888D8823C9F0EA89FB89808185FDBD
:1033300005C0A889B9898C9186FD0FC00FB607FC1E
:10334000F5CF808185FFF2CFA889B9898C9185FF5F
:10335000EDCFCE010E946D19E7CFDF91CF91089597
:10336000CF92DF92FF920F931F93CF93DF931F9221
:10337000CDB7DEB76C01DC015B969C915B975C96E8
:103380008C915C97981307C05096ED91FC915197E2
:10339000808185FD32C0F601038D10E00F5F1F4F65
:1033A0000F731127F02EF601848DF81211C00FB69D
:1033B00007FCF9CFD6015096ED91FC915197808191
:1033C00085FFF1CFC60169830E946D196981EBCF3A
:1033D000838DE80FF11DE35AFF4F6083D6015B96A2
:1033E0000C935B975296ED91FC915397808180628C
:1033F000808381E058968C930DC0D6015696ED914E
:10340000FC91579760835096ED91FC915197808184
:103410008064808381E090E00F90DF91CF911F91D5
:103420000F91FF90DF90CF900895BF92CF92DF92DF
:10343000EF92FF92CF93DF93EC016A017B01B22EF2
:10344000E889F98982E08083411581EE580761059A
:103450007105A1F060E079E08DE390E0A7019601AD
:103460000E94B420215031094109510956954795D0
:1034700037952795211580E1380798F0E889F98973
:10348000108260E874E88EE190E0A70196010E9446
:10349000B420215031094109510956954795379576
:1034A0002795EC85FD853083EE85FF852083188E7A
:1034B000EC89FD89B082EA89FB8980818061808303
:1034C000EA89FB89808188608083EA89FB89808121
:1034D00080688083EA89FB8980818F7D8083DF918A
:1034E000CF91FF90EF90DF90CF90BF9008951F9203
:1034F0000F920FB60F9211242F938F939F93EF93F8
:10350000FF93E0915B04F0915C048081E0916104A1
:10351000F091620482FD12C09081809164048F5FFB
:103520008F7320916504821751F0E0916404F0E0FC
:10353000E55BFB4F958F8093640401C08081FF9110
:10354000EF919F918F912F910F900FBE0F901F9031
:1035500018951F920F920FB60F9211242F933F933D
:103560004F935F936F937F938F939F93AF93BF938B
:10357000EF93FF938BE494E00E946D19FF91EF911C
:10358000BF91AF919F918F917F916F915F914F917B
:103590003F912F910F900FBE0F901F9018958BE4C5
:1035A00094E00E94321921E0892B09F420E0822F57
:1035B000089510924E0410924D0488EE93E0A0E01E
:1035C000B0E080934F0490935004A0935104B093C3
:1035D000520486E592E090934C0480934B0485EC72
:1035E00090E0909358048093570484EC90E090937B
:1035F0005A048093590480EC90E090935C0480938B
:103600005B0481EC90E090935E0480935D0482EC17
:1036100090E09093600480935F0486EC90E0909338
:103620006204809361041092640410926504109205
:10363000660410926704089508950E9436180E9447
:103640001C1B0E94F106CFE5D9E10E946D0F209767
:10365000E1F30E945F19F9CF0C9415210C94152108
:10366000CF92DF92EF92FF920F931F93CF93DF934E
:103670006C017A01EB01E60EF71E00E010E0CE15BA
:10368000DF0561F06991D601ED91FC910190F08127
:10369000E02DC6010995080F191FF1CFC801DF9170
:1036A000CF911F910F91FF90EF90DF90CF900895F1
:1036B0006115710581F0DB010D900020E9F7AD0186
:1036C00041505109461B570BDC01ED91FC910280E2
:1036D000F381E02D099480E090E00895DC01ED9104
:1036E000FC91DB0114964D915C9115976D917C9145
:1036F0000280F381E02D0994DC01ED91FC910190B1
:10370000F081E02D09940F931F93CF93DF93EC0189
:103710006DE00E947C1B8C016AE0CE010E947C1B44
:10372000800F911FDF91CF911F910F9108950F93FB
:103730001F93CF93DF93EC010E946E1B8C01CE018F
:103740000E94831B800F911FDF91CF911F910F91DA
:1037500008950F931F93CF93DF93EC010E94581BA2
:103760008C01CE010E94831B800F911FDF91CF91AE
:103770001F910F910895CF93DF9300D000D0CDB764
:10378000DEB79B01AC01611571058105910569F0FA
:1037900069833A834B835C830E948B2229813A811F
:1037A0004B815C810E94D62003C060E070E0CB01B9
:1037B0000F900F900F900F90DF91CF910895CF92BF
:1037C000DF92EF92FF926B017C016217730784070F
:1037D000950764F4CA01B9016C197D098E099F0926
:1037E0000E94BB1B6C0D7D1D8E1D9F1DFF90EF90D9
:1037F000DF90CF900895FC01808191810C94AD21E0
:10380000CF93DF93EC0188819981009711F00E949A
:10381000AD21198218821D821C821B821A82DF91BF
:10382000CF9108950F931F93CF93DF93EC018B01FA
:103830006F5F7F4F888199810E949922009731F0B4
:10384000998388831B830A8381E001C080E0DF9134
:10385000CF911F910F910895CF93DF93EC01888151
:103860009981892B29F08A819B818617970760F4BB
:10387000CE010E94121C882341F08C819D81892BEE
:1038800019F4E881F981108281E0DF91CF910895E8
:10389000EF92FF920F931F93CF93DF93EC017B0185
:1038A0008A01BA010E942C1C811104C0CE010E9421
:1038B000001C07C01D830C83B701888199810E9479
:1038C0009C23CE01DF91CF911F910F91FF90EF903C
:1038D0000895FC01118210821382128215821482D3
:1038E0006115710559F0FB0101900020E9F7AF0166
:1038F00041505109461B570B0C94481C0895CF9317
:10390000DF93EC01FB018617970761F060817181FD
:103910006115710529F0448155810E94481C02C03F
:103920000E94001CCE01DF91CF910895FC0111820D
:10393000108213821282158214820C947F1CCF9302
:10394000DF93EC016115710561F0FB01019000202E
:10395000E9F7AF0141505109461B570B0E94481C23
:1039600002C00E94001CCE01DF91CF910895CF9339
:10397000DF9300D0CDB7DEB7FC0111821082138235
:1039800012821582148269831A82BE016F5F7F4F93
:103990000E949F1C0F900F90DF91CF9108950F937D
:1039A0001F93CF93DF93CDB7DEB762970FB6F8942E
:1039B000DEBF0FBECDBF8C01CB01F801118210829A
:1039C000138212821582148250E0BE016F5F7F4F16
:1039D0000E94A323BE016F5F7F4FC8010E949F1CFE
:1039E00062960FB6F894DEBF0FBECDBFDF91CF91C8
:1039F0001F910F9108950F931F93CF93DF93CDB72E
:103A0000DEB7A2970FB6F894DEBF0FBECDBF8C0114
:103A1000CB01BA01F8011182108213821282158241
:103A2000148230E0AE014F5F5F4F0E94B923BE01A8
:103A30006F5F7F4FC8010E949F1CA2960FB6F8943B
:103A4000DEBF0FBECDBFDF91CF911F910F910895C3
:103A5000EF92FF920F931F93CF93DF93EC017B01C3
:103A60000C811D816115710511F480E016C04115AE
:103A7000510591F0040F151FB8010E942C1C8823DA
:103A8000A1F3288139818C819D81B701820F931F19
:103A90000E949C231D830C8381E0DF91CF911F91B5
:103AA0000F91FF90EF9008956115710559F0FB019A
:103AB00001900020E9F7AF0141505109461B570B17
:103AC0000C94281D80E00895CF93DF9300D0CDB7EC
:103AD000DEB769831A8241E050E0BE016F5F7F4F1D
:103AE0000E94281D0F900F90DF91CF910895CF93E2
:103AF000DF93EC01FB0144815581608171810E945B
:103B0000281D811103C0CE010E94001CCE01DF914F
:103B1000CF910895CF93DF93DC01ED91FC91EB0100
:103B2000A881B981309711F01097C9F4109759F016
:103B3000EB012C813D81232B31F08C9190E091950C
:103B40008195910914C0309781F0DC0114968D9114
:103B50009C911597892B49F0808190E008C0BD01A8
:103B6000CF01DF91CF910C94932380E090E0DF911F
:103B7000CF910895FC0144815581FB012481358159
:103B80004217530741F40E948A1D21E0892B09F056
:103B900020E0822F089580E00895FC012481358182
:103BA000232B31F421E061157105A1F0FB0108C060
:103BB000FC01808191816115710531F421E0FC01E6
:103BC0008081882339F005C00E94932321E0892B4E
:103BD00009F020E0822F0895FC0184819581681707
:103BE000790720F480819181009729F41092E804EC
:103BF00088EE94E00895860F971F0895BF92CF92A4
:103C0000DF92EF92FF920F931F93CF93DF936C019C
:103C10007B01EA0189012417350720F48D2FE90182
:103C2000042F182F6AE971E0C6010E94691CD701B0
:103C300014968D919C911597C817D907C8F48017D1
:103C4000910708F48C01D701ED91FC911197E00FD9
:103C5000F11FB08010826D917C916C0F7D1FC601A9
:103C60000E949F1CD701ED91FC91E00FF11FB082E3
:103C7000C601DF91CF911F910F91FF90EF90DF90E0
:103C8000CF90BF900895FC0180819181009711F041
:103C90000C94632360E070E0CB01089508955058C0
:103CA000BB27AA270ED04DC13ED130F043D120F022
:103CB00031F49F3F11F41EF433C10EF4E095E7FB9D
:103CC00029C1E92F4FD180F3BA1762077307840720
:103CD000950718F071F49EF567C10EF4E0950B2E70
:103CE000BA2FA02D0B01B90190010C01CA01A0014E
:103CF0001124FF27591B99F0593F50F4503E68F1A9
:103D00001A16F040A22F232F342F4427585FF3CFE9
:103D1000469537952795A795F0405395C9F77EF4BA
:103D20001F16BA0B620B730B840BBAF09150A1F003
:103D3000FF0FBB1F661F771F881FC2F70EC0BA0F89
:103D4000621F731F841F48F4879577956795B79511
:103D5000F7959E3F08F0B3CF9395880F08F0992709
:103D6000EE0F9795879508950CD0EBC0E3D040F007
:103D7000DAD030F021F45F3F19F0CCC0511115C1F9
:103D8000CFC0F0D098F39923C9F35523B1F3951B15
:103D9000550BBB27AA2762177307840738F09F5F6C
:103DA0005F4F220F331F441FAA1FA9F333D00E2EDB
:103DB0003AF0E0E830D091505040E695001CCAF748
:103DC00029D0FE2F27D0660F771F881FBB1F26170D
:103DD00037074807AB07B0E809F0BB0B802DBF01E0
:103DE000FF2793585F4F2AF09E3F510568F092C01D
:103DF000DCC05F3FECF3983EDCF3869577956795E2
:103E0000B795F7959F5FC9F7880F911D9695879590
:103E100097F90895E1E0660F771F881FBB1F6217AF
:103E200073078407BA0720F0621B730B840BBA0B6D
:103E3000EE1F88F7E095089504D06894B111B5C0DD
:103E4000089598D088F09F5790F0B92F9927B751CF
:103E5000A0F0D1F0660F771F881F991F1AF0BA954E
:103E6000C9F712C0B13081F09FD0B1E008959CC075
:103E7000672F782F8827B85F39F0B93FCCF3869544
:103E800077956795B395D9F73EF4909580957095A1
:103E900061957F4F8F4F9F4F0895E89409C097FB1E
:103EA0003EF490958095709561957F4F8F4F9F4F11
:103EB0009923A9F0F92F96E9BB279395F695879555
:103EC00077956795B795F111F8CFFAF4BB0F11F418
:103ED00060FF1BC06F5F7F4F8F4F9F4F16C08823BF
:103EE00011F096E911C0772321F09EE8872F762FF5
:103EF00005C0662371F096E8862F70E060E02AF036
:103F00009A95660F771F881FDAF7880F9695879521
:103F100097F9089597F99F6780E870E060E0089549
:103F20009FEF80EC089500240A94161617061806D1
:103F30000906089500240A941216130614060506AD
:103F40000895092E0394000C11F4882352F0BB0F3E
:103F500040F4BF2B11F460FF04C06F5F7F4F8F4FA1
:103F60009F4F089557FD9058440F551F59F05F3FDC
:103F700071F04795880F97FB991F61F09F3F79F08B
:103F800087950895121613061406551FF2CF46950D
:103F9000F1DF08C0161617061806991FF1CF86958F
:103FA0007105610508940895E894BB276627772773
:103FB000CB0197F908950EF0A4C0B2CF6894AACFB0
:103FC000D9DFC8F39923D1F3C6F3DF93CF931F93BF
:103FD0000F93FF92C92FDD2788232AF02197660FC0
:103FE000771F881FDAF720E030E040E85FEB9FE3BF
:103FF000883920F0803E30F021968F7751DEE2EB59
:10400000F0E003C04DDEEFEDF0E089D08B01BE01A2
:10401000EC01FB2E6F5771097595771F880B990B73
:104020003EDF28E132E741E35FE314D0AF2D980192
:10403000AE01FF900F911F91CF91DF9142DE81CFB2
:1040400072DF28F077DF18F0952309F063CF68CF8F
:104050001124ABCF87DFA0F3959FD1F3950F50E0EC
:10406000551F629FF001729FBB27F00DB11D639F2A
:10407000AA27F00DB11DAA1F649F6627B00DA11DD0
:10408000661F829F2227B00DA11D621F739FB00D76
:10409000A11D621F839FA00D611D221F749F3327E6
:1040A000A00D611D231F849F600D211D822F762F7F
:1040B0006A2F11249F5750408AF0E1F088234AF07C
:1040C000EE0FFF1FBB1F661F771F881F91505040C8
:1040D000A9F79E3F510570F01DCF67CF5F3FECF30E
:1040E000983EDCF3869577956795B795F795E795B4
:1040F0009F5FC1F7FE2B880F911D9695879597F9C5
:1041000008959F3F31F0915020F4879577956795FA
:10411000B795880F911D9695879597F90895DF9328
:10412000CF931F930F93FF92EF92DF927B018C014D
:10413000689405C0DA2EEF018DDFFE01E894A591A9
:104140002591359145915591AEF3EF01BADDFE0110
:104150009701A801DA9479F7DF90EF90FF900F9123
:104160001F91CF91DF910895A1E21A2EAA1BBB1BCC
:10417000FD010DC0AA1FBB1FEE1FFF1FA217B30733
:10418000E407F50720F0A21BB30BE40BF50B661F49
:10419000771F881F991F1A9469F76095709580950D
:1041A00090959B01AC01BD01CF010895052E97FBB1
:1041B0001EF400940E94ED2057FD07D00E94B42009
:1041C00007FC03D04EF40C94ED20509540953095AB
:1041D00021953F4F4F4F5F4F089590958095709573
:1041E00061957F4F8F4F9F4F0895EE0FFF1F0590F2
:1041F000F491E02D09940E940621A59F900DB49F93
:10420000900DA49F800D911D11240895A29FB001CF
:10421000B39FC001A39F700D811D1124911DB29FFA
:10422000700D811D1124911D0895CF93DF9382306D
:10423000910510F482E090E0E091EB04F091EC0441
:1042400020E030E0A0E0B0E0309739F140815181CA
:1042500048175907B8F04817590771F482819381BC
:10426000109729F013969C938E9312972CC09093DD
:10427000EC048093EB0427C02115310531F042177F
:10428000530718F0A901DB0101C0EF019A01BD013C
:10429000DF010280F381E02DD7CF21153105F9F040
:1042A000281B390B2430310580F48A819B816115EC
:1042B000710521F0FB019383828304C09093EC0489
:1042C0008093EB04FE01329644C0FE01E20FF31F1F
:1042D0008193919322503109398328833AC02091E8
:1042E000E9043091EA04232B41F42091020130913A
:1042F00003013093EA042093E904209100013091F6
:1043000001012115310541F42DB73EB7409104015B
:1043100050910501241B350BE091E904F091EA046A
:10432000E217F307A0F42E1B3F0B2817390778F08C
:10433000AC014E5F5F4F2417350748F04E0F5F1FEB
:104340005093EA044093E9048193919302C0E0E022
:10435000F0E0CF01DF91CF910895CF93DF930097E5
:1043600009F487C0FC01329713821282C091EB04DA
:10437000D091EC04209781F420813181280F391FDE
:104380008091E9049091EA048217930779F5F093FC
:10439000EA04E093E9046DC0DE0120E030E0AE17EE
:1043A000BF0750F412964D915C9113979D014115F2
:1043B000510509F1DA01F3CFB383A2834081518122
:1043C000840F951F8A179B0771F48D919C9111970B
:1043D000840F951F02969183808312968D919C91F4
:1043E0001397938382832115310529F4F093EC040C
:1043F000E093EB043EC0D9011396FC93EE93129721
:104400004D915D91A40FB51FEA17FB0779F48081E8
:104410009181840F951F0296D90111969C938E93DA
:104420008281938113969C938E931297E0E0F0E043
:104430008A819B81009719F0FE01EC01F9CFCE0132
:10444000029628813981820F931F2091E9043091CF
:10445000EA042817390769F4309729F41092EC041C
:104460001092EB0402C013821282D093EA04C0932C
:10447000E904DF91CF9108958F929F92AF92BF92FE
:10448000CF92DF92EF92FF92CF93DF93EC0168819E
:1044900079818A819B81611571058105910521F4DE
:1044A00064E279ED8BE597E02DE133EF41E050E0F8
:1044B0000E94D62049015A019B01AC01A7EAB1E450
:1044C0000E94FB206B017C01ACEEB4EFA5019401CE
:1044D0000E943724C60ED71EE81EF91EF7FE06C03E
:1044E00081E0C81AD108E10880E8F80AC882D982B8
:1044F000EA82FB82C701B6019F77DF91CF91FF90DF
:10450000EF90DF90CF90BF90AF909F908F900895E5
:104510000E943C22089586E091E00E943C2208958A
:10452000609306017093070180930801909309013D
:104530000895A0E0B0E0EFE9F2E20C944024EC0131
:10454000CB01209719F40E941521B8C0FE01E60F97
:10455000F71F9E0122503109E217F30708F4ACC09F
:10456000D9010D911C91119706171707B8F0053066
:10457000110508F49FC0A801445051094617570778
:1045800008F498C002501109061B170B01931193F0
:104590006D937C93CF010E94AD218CC05B01A01A6A
:1045A000B10A4E01800E911EA091EB04B091EC0473
:1045B000612C712C60E070E0109709F449C0A815D7
:1045C000B905C9F5ED90FC901197670142E0C40E62
:1045D000D11CCA14DB0478F147018A189B086401D6
:1045E00042E0C40ED11C1296BC9012971396AC9167
:1045F000B5E0CB16D10440F0B282A38391828082D1
:10460000D9018D939C9309C00E5F1F4F0E0D1F1D86
:10461000F90111830083EB2DFA2F6115710531F03B
:10462000DB011396FC93EE93129744C0F093EC04D5
:10463000E093EB043FC06D917C911197661677066D
:1046400008F43B01BD0112960D90BC91A02DB4CF92
:104650006091E9047091EA0468157905E9F4681637
:104660007906D0F4409100015091010141155105A6
:1046700041F44DB75EB76091040170910501461B8E
:10468000570BE417F507C0F4F093EA04E093E9044C
:10469000F901918380830EC00E9415217C0100974F
:1046A00059F0A801BE010E948A23CE010E94AD21CB
:1046B000C70104C0CE0102C080E090E0CDB7DEB7F4
:1046C000EEE00C945C241F93FC0199278827BC0121
:1046D000E89411911032E9F3193010F01E30C8F34C
:1046E0001B3251F01D3249F4689406C00E94D32356
:1046F000610F711D811D911D119110531A30B0F37E
:104700003EF490958095709561957F4F8F4F9F4FA8
:104710001F910895FB01DC0102C001900D924150F0
:104720005040D8F70895FB01DC018D91019080196C
:104730000110D9F3990B0895FB01DC0101900D9252
:104740000020E1F708954532510520F4423010F081
:104750000C94AE23FB011082CB010895BB274A3095
:1047600031F4992322F4BDE2909581959F4F0C94EA
:104770000B242532310520F4223010F00C94C42390
:10478000FA011082CA010895BB272A3051F49923F7
:1047900042F4BDE290958095709561957F4F8F4F63
:1047A0009F4F0C94E923592F482F372F262F660F40
:1047B000771F881F991F660F771F881F991F620F29
:1047C000731F841F951F660F771F881F991F0895F9
:1047D000BB27FA01A62F6217710581059105330BDE
:1047E00030FB66F0AA27660F771F881F991FAA1F44
:1047F000A21710F0A21B63953850A9F7A05DAA3349
:1048000008F0A95DA19336F7B111B1931082CA01E6
:104810000C942424BB27FB015527AA27880F991F36
:10482000AA1FA41710F0A41B83955051B9F7A05DDF
:10483000AA3308F0A95DA193009779F7B111B1935C
:104840001192CB010C942424DC01FC01672F71919F
:104850007723E1F7329704C07C916D937083629166
:10486000AE17BF07C8F30895B7FF0C94FB200E9452
:10487000FB20821B930B08952F923F924F925F92E1
:104880006F927F928F929F92AF92BF92CF92DF9260
:10489000EF92FF920F931F93CF93DF93CDB7DEB7C5
:1048A000CA1BDB0B0FB6F894DEBF0FBECDBF099459
:1048B0002A88398848885F846E847D848C849B84B0
:1048C000AA84B984C884DF80EE80FD800C811B81BE
:1048D000AA81B981CE0FD11D0FB6F894DEBF0FBEED
:1048E000CDBFED01089511E0CCE6D1E004C0FE019A
:1048F0000E94F7202296CE36D107C9F7F894FFCF51
:104900000000ED048000010000000300010002002F
:10491000000009000A000B000400000000000E0067
:10492000050000000C0008000D0030303030303041
:1049300030303030303030303030003131313131A2
:1049400031313131313131313131310042313600A3
:1049500042313500423132004231310042313400BF
:10496000423133004135380041353700413535009B
:1049700041353600493243205265636F7665726572
:1049800064004932432046726F7A65202844697377
:10499000706C617973290020202000493243204641
:1049A000726F7A652028537769746368657329008C
:1049B00059313131005931323100593039310059D2
:1049C0003130310042303500423231303030300049
:1049D0004230390042303400423130004135340039
:1049E00042333000423038005930383000423334DE
:1049F0000042303100423236004932432046726F65
:104A00007A65002D2D2D2D2D2D2D2D2D2D2D2D2D7E
:104A10002D2D2D2D2D2D2D2D2D2D2D2D2D003336E4
:104A20003000000000000000000001000000000055
:104A3000FFFFFFFF00000000010000000000000079
:104A4000000000000000B7148A145F1467147A1481
:104A5000891400000000B019301B32194B193D19A0
:024A60008E19AD
:00000001FF
